{
  "_format": "hh3-artifact-1",
  "contractName": "PiggyBank",
  "sourceName": "contracts/PiggyBank.sol",
  "abi": [
    {
      "inputs": [
        {
          "internalType": "address",
          "name": "_treasury",
          "type": "address"
        }
      ],
      "stateMutability": "nonpayable",
      "type": "constructor"
    },
    {
      "inputs": [],
      "name": "EnforcedPause",
      "type": "error"
    },
    {
      "inputs": [],
      "name": "ExpectedPause",
      "type": "error"
    },
    {
      "inputs": [
        {
          "internalType": "address",
          "name": "owner",
          "type": "address"
        }
      ],
      "name": "OwnableInvalidOwner",
      "type": "error"
    },
    {
      "inputs": [
        {
          "internalType": "address",
          "name": "account",
          "type": "address"
        }
      ],
      "name": "OwnableUnauthorizedAccount",
      "type": "error"
    },
    {
      "inputs": [],
      "name": "ReentrancyGuardReentrantCall",
      "type": "error"
    },
    {
      "inputs": [
        {
          "internalType": "address",
          "name": "token",
          "type": "address"
        }
      ],
      "name": "SafeERC20FailedOperation",
      "type": "error"
    },
    {
      "anonymous": false,
      "inputs": [
        {
          "indexed": true,
          "internalType": "address",
          "name": "user",
          "type": "address"
        },
        {
          "indexed": true,
          "internalType": "address",
          "name": "token",
          "type": "address"
        },
        {
          "indexed": false,
          "internalType": "uint256",
          "name": "amount",
          "type": "uint256"
        }
      ],
      "name": "Deposited",
      "type": "event"
    },
    {
      "anonymous": false,
      "inputs": [
        {
          "indexed": false,
          "internalType": "bool",
          "name": "enabled",
          "type": "bool"
        }
      ],
      "name": "EmergencyExitToggled",
      "type": "event"
    },
    {
      "anonymous": false,
      "inputs": [
        {
          "indexed": false,
          "internalType": "uint256",
          "name": "newFeeBps",
          "type": "uint256"
        }
      ],
      "name": "EmergencyFeeUpdated",
      "type": "event"
    },
    {
      "anonymous": false,
      "inputs": [
        {
          "indexed": true,
          "internalType": "address",
          "name": "user",
          "type": "address"
        },
        {
          "indexed": true,
          "internalType": "address",
          "name": "token",
          "type": "address"
        },
        {
          "indexed": false,
          "internalType": "uint256",
          "name": "userAmount",
          "type": "uint256"
        },
        {
          "indexed": false,
          "internalType": "uint256",
          "name": "fee",
          "type": "uint256"
        }
      ],
      "name": "EmergencyWithdrawn",
      "type": "event"
    },
    {
      "anonymous": false,
      "inputs": [
        {
          "indexed": true,
          "internalType": "address",
          "name": "previousOwner",
          "type": "address"
        },
        {
          "indexed": true,
          "internalType": "address",
          "name": "newOwner",
          "type": "address"
        }
      ],
      "name": "OwnershipTransferred",
      "type": "event"
    },
    {
      "anonymous": false,
      "inputs": [
        {
          "indexed": false,
          "internalType": "address",
          "name": "account",
          "type": "address"
        }
      ],
      "name": "Paused",
      "type": "event"
    },
    {
      "anonymous": false,
      "inputs": [
        {
          "indexed": true,
          "internalType": "address",
          "name": "to",
          "type": "address"
        },
        {
          "indexed": false,
          "internalType": "uint256",
          "name": "amount",
          "type": "uint256"
        }
      ],
      "name": "Swept",
      "type": "event"
    },
    {
      "anonymous": false,
      "inputs": [
        {
          "indexed": false,
          "internalType": "address",
          "name": "newTreasury",
          "type": "address"
        }
      ],
      "name": "TreasuryUpdated",
      "type": "event"
    },
    {
      "anonymous": false,
      "inputs": [
        {
          "indexed": true,
          "internalType": "address",
          "name": "user",
          "type": "address"
        },
        {
          "indexed": false,
          "internalType": "uint256",
          "name": "oldTime",
          "type": "uint256"
        },
        {
          "indexed": false,
          "internalType": "uint256",
          "name": "newTime",
          "type": "uint256"
        }
      ],
      "name": "UnlockTimeExtended",
      "type": "event"
    },
    {
      "anonymous": false,
      "inputs": [
        {
          "indexed": false,
          "internalType": "address",
          "name": "account",
          "type": "address"
        }
      ],
      "name": "Unpaused",
      "type": "event"
    },
    {
      "anonymous": false,
      "inputs": [
        {
          "indexed": true,
          "internalType": "address",
          "name": "user",
          "type": "address"
        },
        {
          "indexed": true,
          "internalType": "address",
          "name": "token",
          "type": "address"
        },
        {
          "indexed": false,
          "internalType": "uint256",
          "name": "amount",
          "type": "uint256"
        }
      ],
      "name": "Withdrawn",
      "type": "event"
    },
    {
      "anonymous": false,
      "inputs": [
        {
          "indexed": true,
          "internalType": "address",
          "name": "user",
          "type": "address"
        },
        {
          "indexed": true,
          "internalType": "address",
          "name": "token",
          "type": "address"
        },
        {
          "indexed": false,
          "internalType": "uint256",
          "name": "userAmount",
          "type": "uint256"
        }
      ],
      "name": "ZeroFeeEmergencyWithdrawn",
      "type": "event"
    },
    {
      "inputs": [],
      "name": "EMERGENCY_COOLDOWN",
      "outputs": [
        {
          "internalType": "uint256",
          "name": "",
          "type": "uint256"
        }
      ],
      "stateMutability": "view",
      "type": "function"
    },
    {
      "inputs": [],
      "name": "MAX_ASSETS_PER_USER",
      "outputs": [
        {
          "internalType": "uint256",
          "name": "",
          "type": "uint256"
        }
      ],
      "stateMutability": "view",
      "type": "function"
    },
    {
      "inputs": [],
      "name": "MAX_FEE_BPS",
      "outputs": [
        {
          "internalType": "uint256",
          "name": "",
          "type": "uint256"
        }
      ],
      "stateMutability": "view",
      "type": "function"
    },
    {
      "inputs": [],
      "name": "MIN_EMERGENCY_AMOUNT",
      "outputs": [
        {
          "internalType": "uint256",
          "name": "",
          "type": "uint256"
        }
      ],
      "stateMutability": "view",
      "type": "function"
    },
    {
      "inputs": [],
      "name": "MIN_LOCK_DURATION",
      "outputs": [
        {
          "internalType": "uint256",
          "name": "",
          "type": "uint256"
        }
      ],
      "stateMutability": "view",
      "type": "function"
    },
    {
      "inputs": [],
      "name": "MIN_LOCK_EXTENSION",
      "outputs": [
        {
          "internalType": "uint256",
          "name": "",
          "type": "uint256"
        }
      ],
      "stateMutability": "view",
      "type": "function"
    },
    {
      "inputs": [
        {
          "internalType": "address[]",
          "name": "tokens",
          "type": "address[]"
        },
        {
          "internalType": "uint256[]",
          "name": "amounts",
          "type": "uint256[]"
        }
      ],
      "name": "batchEmergencyWithdraw",
      "outputs": [],
      "stateMutability": "nonpayable",
      "type": "function"
    },
    {
      "inputs": [
        {
          "internalType": "address[]",
          "name": "tokens",
          "type": "address[]"
        },
        {
          "internalType": "uint256[]",
          "name": "amounts",
          "type": "uint256[]"
        }
      ],
      "name": "batchWithdraw",
      "outputs": [],
      "stateMutability": "nonpayable",
      "type": "function"
    },
    {
      "inputs": [
        {
          "internalType": "address",
          "name": "token",
          "type": "address"
        },
        {
          "internalType": "uint256",
          "name": "amount",
          "type": "uint256"
        },
        {
          "internalType": "uint256",
          "name": "minAmount",
          "type": "uint256"
        }
      ],
      "name": "deposit",
      "outputs": [],
      "stateMutability": "payable",
      "type": "function"
    },
    {
      "inputs": [
        {
          "internalType": "address",
          "name": "token",
          "type": "address"
        },
        {
          "internalType": "uint256",
          "name": "amount",
          "type": "uint256"
        },
        {
          "internalType": "uint256",
          "name": "minAmount",
          "type": "uint256"
        },
        {
          "internalType": "uint256",
          "name": "deadline",
          "type": "uint256"
        },
        {
          "internalType": "uint8",
          "name": "v",
          "type": "uint8"
        },
        {
          "internalType": "bytes32",
          "name": "r",
          "type": "bytes32"
        },
        {
          "internalType": "bytes32",
          "name": "s",
          "type": "bytes32"
        }
      ],
      "name": "depositWithPermit",
      "outputs": [],
      "stateMutability": "nonpayable",
      "type": "function"
    },
    {
      "inputs": [],
      "name": "emergencyExitEnabled",
      "outputs": [
        {
          "internalType": "bool",
          "name": "",
          "type": "bool"
        }
      ],
      "stateMutability": "view",
      "type": "function"
    },
    {
      "inputs": [],
      "name": "emergencyFeeBps",
      "outputs": [
        {
          "internalType": "uint256",
          "name": "",
          "type": "uint256"
        }
      ],
      "stateMutability": "view",
      "type": "function"
    },
    {
      "inputs": [
        {
          "internalType": "address",
          "name": "token",
          "type": "address"
        },
        {
          "internalType": "uint256",
          "name": "amount",
          "type": "uint256"
        }
      ],
      "name": "emergencyWithdraw",
      "outputs": [],
      "stateMutability": "nonpayable",
      "type": "function"
    },
    {
      "inputs": [
        {
          "internalType": "address",
          "name": "user",
          "type": "address"
        }
      ],
      "name": "getActiveAssets",
      "outputs": [
        {
          "internalType": "address[]",
          "name": "",
          "type": "address[]"
        }
      ],
      "stateMutability": "view",
      "type": "function"
    },
    {
      "inputs": [
        {
          "internalType": "address",
          "name": "user",
          "type": "address"
        },
        {
          "internalType": "address",
          "name": "token",
          "type": "address"
        }
      ],
      "name": "getBalance",
      "outputs": [
        {
          "internalType": "uint256",
          "name": "",
          "type": "uint256"
        }
      ],
      "stateMutability": "view",
      "type": "function"
    },
    {
      "inputs": [
        {
          "internalType": "address",
          "name": "user",
          "type": "address"
        }
      ],
      "name": "getUnlockTime",
      "outputs": [
        {
          "internalType": "uint256",
          "name": "",
          "type": "uint256"
        }
      ],
      "stateMutability": "view",
      "type": "function"
    },
    {
      "inputs": [
        {
          "internalType": "address",
          "name": "user",
          "type": "address"
        }
      ],
      "name": "isCooldownActive",
      "outputs": [
        {
          "internalType": "bool",
          "name": "",
          "type": "bool"
        }
      ],
      "stateMutability": "view",
      "type": "function"
    },
    {
      "inputs": [],
      "name": "owner",
      "outputs": [
        {
          "internalType": "address",
          "name": "",
          "type": "address"
        }
      ],
      "stateMutability": "view",
      "type": "function"
    },
    {
      "inputs": [],
      "name": "pause",
      "outputs": [],
      "stateMutability": "nonpayable",
      "type": "function"
    },
    {
      "inputs": [],
      "name": "paused",
      "outputs": [
        {
          "internalType": "bool",
          "name": "",
          "type": "bool"
        }
      ],
      "stateMutability": "view",
      "type": "function"
    },
    {
      "inputs": [],
      "name": "renounceOwnership",
      "outputs": [],
      "stateMutability": "nonpayable",
      "type": "function"
    },
    {
      "inputs": [
        {
          "internalType": "bool",
          "name": "enabled",
          "type": "bool"
        }
      ],
      "name": "setEmergencyEnabled",
      "outputs": [],
      "stateMutability": "nonpayable",
      "type": "function"
    },
    {
      "inputs": [
        {
          "internalType": "uint256",
          "name": "_feeBps",
          "type": "uint256"
        }
      ],
      "name": "setEmergencyFee",
      "outputs": [],
      "stateMutability": "nonpayable",
      "type": "function"
    },
    {
      "inputs": [
        {
          "internalType": "uint256",
          "name": "newUnlockTime",
          "type": "uint256"
        }
      ],
      "name": "setOrExtendLock",
      "outputs": [],
      "stateMutability": "nonpayable",
      "type": "function"
    },
    {
      "inputs": [],
      "name": "sweep",
      "outputs": [],
      "stateMutability": "nonpayable",
      "type": "function"
    },
    {
      "inputs": [
        {
          "internalType": "address",
          "name": "newOwner",
          "type": "address"
        }
      ],
      "name": "transferOwnership",
      "outputs": [],
      "stateMutability": "nonpayable",
      "type": "function"
    },
    {
      "inputs": [],
      "name": "treasury",
      "outputs": [
        {
          "internalType": "address",
          "name": "",
          "type": "address"
        }
      ],
      "stateMutability": "view",
      "type": "function"
    },
    {
      "inputs": [],
      "name": "unpause",
      "outputs": [],
      "stateMutability": "nonpayable",
      "type": "function"
    },
    {
      "inputs": [
        {
          "internalType": "address",
          "name": "_newTreasury",
          "type": "address"
        }
      ],
      "name": "updateTreasury",
      "outputs": [],
      "stateMutability": "nonpayable",
      "type": "function"
    },
    {
      "inputs": [
        {
          "internalType": "address",
          "name": "token",
          "type": "address"
        },
        {
          "internalType": "uint256",
          "name": "amount",
          "type": "uint256"
        }
      ],
      "name": "withdraw",
      "outputs": [],
      "stateMutability": "nonpayable",
      "type": "function"
    },
    {
      "stateMutability": "payable",
      "type": "receive"
    }
  ],
  "bytecode": "0x60806040526064600155348015610014575f5ffd5b5060405161216038038061216083398101604081905261003391610151565b338061005957604051631e4fbdf760e01b81525f60048201526024015b60405180910390fd5b61006281610102565b5060017f9b779b17422d0df92223018b32b4d1fa46e071723d6817e2486d003becc55f00556001600160a01b0381166100dd5760405162461bcd60e51b815260206004820152601860248201527f496e76616c6964207472656173757279206164647265737300000000000000006044820152606401610050565b600280546001600160a01b0319166001600160a01b039290921691909117905561017e565b5f80546001600160a01b038381166001600160a01b0319831681178455604051919092169283917f8be0079c531659141344cd1fd0a4f28419497f9722a3daafe3b4186f6b6457e09190a35050565b5f60208284031215610161575f5ffd5b81516001600160a01b0381168114610177575f5ffd5b9392505050565b611fd58061018b5f395ff3fe6080604052600436106101c8575f3560e01c80638456cb59116100f2578063d4fac45d11610092578063e131243e11610062578063e131243e14610541578063e3226d6914610560578063f2fde38b14610576578063f3fef3a314610595575f5ffd5b8063d4fac45d14610494578063d55be8c6146104d9578063dbed1e88146104ee578063dca1283e14610522575f5ffd5b806395ccea67116100cd57806395ccea6714610437578063b38c433314610456578063b4f1094d146103be578063b57717d414610475575f5ffd5b80638456cb59146103f3578063866b60d3146104075780638da5cb5b1461041b575f5ffd5b80633f4ba83a1161016857806363835bca1161013857806363835bca14610390578063715018a6146103aa57806378b4330f146103be5780637f51bb1f146103d4575f5ffd5b80633f4ba83a146102fc578063480bf45b146103105780635c975abb1461033c57806361d027b314610359575f5ffd5b806321532973116101a3578063215329731461028757806335845956146102aa57806335faa416146102c95780633d935d9e146102dd575f5ffd5b80630d36a9e91461021e5780630efe6a8b146102535780631b506b1114610268575f5ffd5b3661021a5760405162461bcd60e51b815260206004820152601960248201527f557365206465706f736974282920746f2073656e64204554480000000000000060448201526064015b60405180910390fd5b5f5ffd5b348015610229575f5ffd5b5060025461023e90600160a01b900460ff1681565b60405190151581526020015b60405180910390f35b610266610261366004611c7f565b6105b4565b005b348015610273575f5ffd5b50610266610282366004611caf565b610ba9565b348015610292575f5ffd5b5061029c60015481565b60405190815260200161024a565b3480156102b5575f5ffd5b506102666102c4366004611d0e565b610c8e565b3480156102d4575f5ffd5b50610266610dd8565b3480156102e8575f5ffd5b506102666102f7366004611d7a565b610ef6565b348015610307575f5ffd5b50610266610f91565b34801561031b575f5ffd5b5061032f61032a366004611de0565b610fa3565b60405161024a9190611e00565b348015610347575f5ffd5b505f54600160a01b900460ff1661023e565b348015610364575f5ffd5b50600254610378906001600160a01b031681565b6040516001600160a01b03909116815260200161024a565b34801561039b575f5ffd5b5061029c66038d7ea4c6800081565b3480156103b5575f5ffd5b50610266611139565b3480156103c9575f5ffd5b5061029c62093a8081565b3480156103df575f5ffd5b506102666103ee366004611de0565b61114a565b3480156103fe575f5ffd5b506102666111f6565b348015610412575f5ffd5b5061029c601981565b348015610426575f5ffd5b505f546001600160a01b0316610378565b348015610442575f5ffd5b50610266610451366004611e40565b611206565b348015610461575f5ffd5b5061023e610470366004611de0565b61123d565b348015610480575f5ffd5b5061026661048f366004611e68565b61124d565b34801561049f575f5ffd5b5061029c6104ae366004611e87565b6001600160a01b039182165f9081526003602081815260408084209490951683529201909152205490565b3480156104e4575f5ffd5b5061029c6101f481565b3480156104f9575f5ffd5b5061029c610508366004611de0565b6001600160a01b03165f9081526003602052604090205490565b34801561052d575f5ffd5b5061026661053c366004611caf565b6112a2565b34801561054c575f5ffd5b5061026661055b366004611d0e565b61143c565b34801561056b575f5ffd5b5061029c6201518081565b348015610581575f5ffd5b50610266610590366004611de0565b61150f565b3480156105a0575f5ffd5b506102666105af366004611e40565b61154c565b6105bc611568565b6105c4611583565b335f9081526003602052604090205461062e5760405162461bcd60e51b815260206004820152602660248201527f4d7573742073657420756e6c6f636b2074696d65206265666f7265206465706f604482015265736974696e6760d01b6064820152608401610211565b6001600160a01b03831615158061064457505f34115b6106ac5760405162461bcd60e51b815260206004820152603360248201527f496e76616c696420746f6b656e3a207573652061646472657373283029206f6e6044820152726c7920666f7220455448206465706f7369747360681b6064820152608401610211565b335f818152600360205260409020906106c4906115ad565b156107245760405162461bcd60e51b815260206004820152602a60248201527f4465706f73697420626c6f636b65643a20656d657267656e637920636f6f6c646044820152696f776e2061637469766560b01b6064820152608401610211565b80541561077b578054421061077b5760405162461bcd60e51b815260206004820152601f60248201527f43616e6e6f74206465706f73697420746f2065787069726564207661756c74006044820152606401610211565b6001600160a01b0384165f90815260048201602052604090205460ff1661084d5760028101546019116107fe5760405162461bcd60e51b815260206004820152602560248201527f4d6178696d756d206e756d626572206f662061737365742074797065732072656044820152641858da195960da1b6064820152608401610211565b600281018054600180820183555f928352602080842090920180546001600160a01b0319166001600160a01b0389169081179091558352600484019091526040909120805460ff191690911790555b6001600160a01b0384166108bb575f8080526003820160205260408120805434929061087a908490611ecc565b90915550506040513481525f9033907f8752a472e571a816aea92eec8dae9baf628e840f4929fbcc2d155e6233ff68a79060200160405180910390a3610b8d565b5f831161090a5760405162461bcd60e51b815260206004820181905260248201527f416d6f756e74206d7573742062652067726561746572207468616e207a65726f6044820152606401610211565b34156109585760405162461bcd60e51b815260206004820152601c60248201527f4554482073656e742077697468204552432d3230206465706f736974000000006044820152606401610211565b6040516370a0823160e01b81523060048201525f906001600160a01b038616906370a0823190602401602060405180830381865afa15801561099c573d5f5f3e3d5ffd5b505050506040513d601f19601f820116820180604052508101906109c09190611edf565b90506109d76001600160a01b0386163330876115de565b6040516370a0823160e01b81523060048201525f9082906001600160a01b038816906370a0823190602401602060405180830381865afa158015610a1d573d5f5f3e3d5ffd5b505050506040513d601f19601f82011682018060405250810190610a419190611edf565b610a4b9190611ef6565b90505f8111610ab35760405162461bcd60e51b815260206004820152602e60248201527f4e6f20746f6b656e7320726563656976656420286665652d6f6e2d7472616e7360448201526d666572206f72207265766572742960901b6064820152608401610211565b83811015610b1c5760405162461bcd60e51b815260206004820152603060248201527f496e73756666696369656e7420746f6b656e732072656365697665642061667460448201526f6572207472616e73666572206665657360801b6064820152608401610211565b6001600160a01b0386165f90815260038401602052604081208054839290610b45908490611ecc565b90915550506040518181526001600160a01b0387169033907f8752a472e571a816aea92eec8dae9baf628e840f4929fbcc2d155e6233ff68a79060200160405180910390a350505b50610ba460015f516020611f805f395f51905f5255565b505050565b610bb1611614565b5f8111610c005760405162461bcd60e51b815260206004820152601d60248201527f466565206d7573742062652067726561746572207468616e207a65726f0000006044820152606401610211565b6101f4811115610c525760405162461bcd60e51b815260206004820152601b60248201527f4665652065786365656473206d6178696d756d20616c6c6f77656400000000006044820152606401610211565b60018190556040518181527f8eb7ec15b35c9695df2bd30a714e722ceb49b94eaefd53ac209c295b35134703906020015b60405180910390a150565b610c96611568565b610c9e611583565b600254600160a01b900460ff16610cf75760405162461bcd60e51b815260206004820181905260248201527f456d657267656e6379207769746864726177616c2069732064697361626c65646044820152606401610211565b828114610d3e5760405162461bcd60e51b8152602060048201526015602482015274082e4e4c2f240d8cadccee8d040dad2e6dac2e8c6d605b1b6044820152606401610211565b5f5b83811015610dbb575f838383818110610d5b57610d5b611f09565b905060200201351115610db357610db333868684818110610d7e57610d7e611f09565b9050602002016020810190610d939190611de0565b858585818110610da557610da5611f09565b905060200201356001611640565b600101610d40565b50610dd260015f516020611f805f395f51905f5255565b50505050565b610de0611614565b4780610e215760405162461bcd60e51b815260206004820152601060248201526f04e6f7468696e6720746f2073776565760841b6044820152606401610211565b6002546040515f916001600160a01b03169083908381818185875af1925050503d805f8114610e6b576040519150601f19603f3d011682016040523d82523d5f602084013e610e70565b606091505b5050905080610eb05760405162461bcd60e51b815260206004820152600c60248201526b14ddd9595c0819985a5b195960a21b6044820152606401610211565b6002546040518381526001600160a01b03909116907fc36b5179cb9c303b200074996eab2b3473eac370fdd7eba3bec636fe351096969060200160405180910390a25050565b610efe611583565b60405163d505accf60e01b8152336004820152306024820152604481018790526064810185905260ff8416608482015260a4810183905260c481018290526001600160a01b0388169063d505accf9060e4015f604051808303815f87803b158015610f67575f5ffd5b505af1158015610f79573d5f5f3e3d5ffd5b50505050610f888787876105b4565b50505050505050565b610f99611614565b610fa161196c565b565b6001600160a01b0381165f908152600360205260408120606091805b6002830154811015611024575f836003015f856002018481548110610fe657610fe6611f09565b5f9182526020808320909101546001600160a01b03168352820192909252604001902054111561101c5761101982611f1d565b91505b600101610fbf565b505f8167ffffffffffffffff81111561103f5761103f611f35565b604051908082528060200260200182016040528015611068578160200160208202803683370190505b5090505f5f5b600285015481101561112e575f856003015f87600201848154811061109557611095611f09565b5f9182526020808320909101546001600160a01b031683528201929092526040019020541115611126578460020181815481106110d4576110d4611f09565b5f918252602090912001546001600160a01b031683836110f381611f1d565b94508151811061110557611105611f09565b60200260200101906001600160a01b031690816001600160a01b0316815250505b60010161106e565b509095945050505050565b611141611614565b610fa15f6119c0565b611152611614565b6001600160a01b0381166111a85760405162461bcd60e51b815260206004820152601860248201527f496e76616c6964207472656173757279206164647265737300000000000000006044820152606401610211565b600280546001600160a01b0319166001600160a01b0383169081179091556040519081527f7dae230f18360d76a040c81f050aa14eb9d6dc7901b20fc5d855e2a20fe814d190602001610c83565b6111fe611614565b610fa1611a0f565b61120e611568565b611216611583565b6112233383836001611640565b61123960015f516020611f805f395f51905f5255565b5050565b5f611247826115ad565b92915050565b611255611614565b60028054821515600160a01b0260ff60a01b199091161790556040517f7213e443e62af99f4397fd9c4e1ac44b1ae1370529fedeefad5a91e567397ab790610c8390831515815260200190565b335f9081526003602052604090204282116113095760405162461bcd60e51b815260206004820152602160248201527f556e6c6f636b2074696d65206d75737420626520696e207468652066757475726044820152606560f81b6064820152608401610211565b80545f036113725761131e62093a8042611ecc565b82101561136d5760405162461bcd60e51b815260206004820152601d60248201527f496e697469616c206c6f636b20706572696f6420746f6f2073686f72740000006044820152606401610211565b6113f7565b8054611382906201518090611ecc565b8210156113f75760405162461bcd60e51b815260206004820152603960248201527f457874656e73696f6e20746f6f2073686f72743a206d7573742061646420617460448201527f206c65617374204d494e5f4c4f434b5f455854454e53494f4e000000000000006064820152608401610211565b8054828255604080518281526020810185905233917f3649769fbb1f6e05c11973724b411deecf60e8cf4e5411776a8a51b2c2c76286910160405180910390a2505050565b611444611568565b61144c611583565b8281146114935760405162461bcd60e51b8152602060048201526015602482015274082e4e4c2f240d8cadccee8d040dad2e6dac2e8c6d605b1b6044820152606401610211565b5f5b83811015610dbb575f8383838181106114b0576114b0611f09565b90506020020135111561150757611507338686848181106114d3576114d3611f09565b90506020020160208101906114e89190611de0565b8585858181106114fa576114fa611f09565b905060200201355f611640565b600101611495565b611517611614565b6001600160a01b03811661154057604051631e4fbdf760e01b81525f6004820152602401610211565b611549816119c0565b50565b611554611568565b61155c611583565b6112233383835f611640565b611570611a51565b60025f516020611f805f395f51905f5255565b5f54600160a01b900460ff1615610fa15760405163d93c066560e01b815260040160405180910390fd5b6001600160a01b0381165f908152600360205260408120600101546115d69062093a8090611ecc565b421092915050565b6115ec848484846001611a80565b610dd257604051635274afe760e01b81526001600160a01b0385166004820152602401610211565b5f546001600160a01b03163314610fa15760405163118cdaa760e01b8152336004820152602401610211565b6001600160a01b0384165f908152600360205260409020821580159061167f57506001600160a01b0384165f9081526003820160205260409020548311155b6116bc5760405162461bcd60e51b815260206004820152600e60248201526d125b9d985b1a5908185b5bdd5b9d60921b6044820152606401610211565b825f83156117b957600254600160a01b900460ff1661171d5760405162461bcd60e51b815260206004820152601d60248201527f456d657267656e6379207769746864726177616c2064697361626c65640000006044820152606401610211565b66038d7ea4c680008510156117855760405162461bcd60e51b815260206004820152602860248201527f416d6f756e742062656c6f77206d696e696d756d20656d657267656e637920746044820152671a1c995cda1bdb1960c21b6064820152608401610211565b612710600154866117969190611f49565b6117a09190611f60565b90506117ac8186611ef6565b426001850155915061180e565b8254158015906117ca575082544210155b61180e5760405162461bcd60e51b815260206004820152601560248201527415985d5b1d081a5cc81cdd1a5b1b081b1bd8dad959605a1b6044820152606401610211565b6001600160a01b0386165f90815260038401602052604081208054879290611837908490611ef6565b9091555050831561190b5761184d868884611aed565b80156118c65760025461186b9087906001600160a01b031683611aed565b856001600160a01b0316876001600160a01b03167ff6ef4d26ce8ca3318c261d24ca939f2b45a0e46dd59bf453fc1a52dc4cd40ef884846040516118b9929190918252602082015260400190565b60405180910390a3610f88565b856001600160a01b0316876001600160a01b03167fa65bab1d05072f6c02b21830772feee823a0c3f0a2a6a6d14650be160c6c3a3a846040516118b991815260200190565b611916868887611aed565b856001600160a01b0316876001600160a01b03167fd1c19fbcd4551a5edfb66d43d2e337c04837afda3482b42bdf569a8fccdae5fb8760405161195b91815260200190565b60405180910390a350505050505050565b611974611ba4565b5f805460ff60a01b191690557f5db9ee0a495bf2e6ff9c91a7834c1ba4fdd244a5e8aa4e537bd38aeae4b073aa335b6040516001600160a01b03909116815260200160405180910390a1565b5f80546001600160a01b038381166001600160a01b0319831681178455604051919092169283917f8be0079c531659141344cd1fd0a4f28419497f9722a3daafe3b4186f6b6457e09190a35050565b611a17611583565b5f805460ff60a01b1916600160a01b1790557f62e78cea01bee320cd4e420270b5ea74000d11b0c9f74754ebdbfc544b05a2586119a33390565b5f516020611f805f395f51905f5254600203610fa157604051633ee5aeb560e01b815260040160405180910390fd5b6040516323b872dd60e01b5f8181526001600160a01b038781166004528616602452604485905291602083606481808c5af1925060015f51148316611adc578383151615611ad0573d5f823e3d81fd5b5f883b113d1516831692505b604052505f60605295945050505050565b6001600160a01b038316611b90575f826001600160a01b0316826040515f6040518083038185875af1925050503d805f8114611b44576040519150601f19603f3d011682016040523d82523d5f602084013e611b49565b606091505b5050905080610dd25760405162461bcd60e51b8152602060048201526013602482015272115512081d1c985b9cd9995c8819985a5b1959606a1b6044820152606401610211565b610ba46001600160a01b0384168383611bcd565b5f54600160a01b900460ff16610fa157604051638dfc202b60e01b815260040160405180910390fd5b611bda8383836001611c02565b610ba457604051635274afe760e01b81526001600160a01b0384166004820152602401610211565b60405163a9059cbb60e01b5f8181526001600160a01b038616600452602485905291602083604481808b5af1925060015f51148316611c58578383151615611c4c573d5f823e3d81fd5b5f873b113d1516831692505b60405250949350505050565b80356001600160a01b0381168114611c7a575f5ffd5b919050565b5f5f5f60608486031215611c91575f5ffd5b611c9a84611c64565b95602085013595506040909401359392505050565b5f60208284031215611cbf575f5ffd5b5035919050565b5f5f83601f840112611cd6575f5ffd5b50813567ffffffffffffffff811115611ced575f5ffd5b6020830191508360208260051b8501011115611d07575f5ffd5b9250929050565b5f5f5f5f60408587031215611d21575f5ffd5b843567ffffffffffffffff811115611d37575f5ffd5b611d4387828801611cc6565b909550935050602085013567ffffffffffffffff811115611d62575f5ffd5b611d6e87828801611cc6565b95989497509550505050565b5f5f5f5f5f5f5f60e0888a031215611d90575f5ffd5b611d9988611c64565b9650602088013595506040880135945060608801359350608088013560ff81168114611dc3575f5ffd5b9699959850939692959460a0840135945060c09093013592915050565b5f60208284031215611df0575f5ffd5b611df982611c64565b9392505050565b602080825282518282018190525f918401906040840190835b8181101561112e5783516001600160a01b0316835260209384019390920191600101611e19565b5f5f60408385031215611e51575f5ffd5b611e5a83611c64565b946020939093013593505050565b5f60208284031215611e78575f5ffd5b81358015158114611df9575f5ffd5b5f5f60408385031215611e98575f5ffd5b611ea183611c64565b9150611eaf60208401611c64565b90509250929050565b634e487b7160e01b5f52601160045260245ffd5b8082018082111561124757611247611eb8565b5f60208284031215611eef575f5ffd5b5051919050565b8181038181111561124757611247611eb8565b634e487b7160e01b5f52603260045260245ffd5b5f60018201611f2e57611f2e611eb8565b5060010190565b634e487b7160e01b5f52604160045260245ffd5b808202811582820484141761124757611247611eb8565b5f82611f7a57634e487b7160e01b5f52601260045260245ffd5b50049056fe9b779b17422d0df92223018b32b4d1fa46e071723d6817e2486d003becc55f00a264697066735822122076ec538e2a620649c27dcb25fe102657804134a4d724440b1ff9bf007147243464736f6c634300081c0033",
  "linkReferences": {},
  "deployedLinkReferences": {},
  "immutableReferences": {},
  "inputSourceName": "project/contracts/PiggyBank.sol",
  "buildInfoId": "solc-0_8_28-340f25152d1f61dc32b6170e4253cbea52f26df6"
}